{"abi":[{"type":"constructor","inputs":[{"name":"proposalNames","type":"bytes32[]","internalType":"bytes32[]"}],"stateMutability":"nonpayable"},{"type":"function","name":"chairperson","inputs":[],"outputs":[{"name":"","type":"address","internalType":"address"}],"stateMutability":"view"},{"type":"function","name":"delegate","inputs":[{"name":"to","type":"address","internalType":"address"}],"outputs":[],"stateMutability":"nonpayable"},{"type":"function","name":"giveRightToVote","inputs":[{"name":"votees","type":"address[]","internalType":"address[]"}],"outputs":[],"stateMutability":"nonpayable"},{"type":"function","name":"proposals","inputs":[{"name":"","type":"uint256","internalType":"uint256"}],"outputs":[{"name":"name","type":"bytes32","internalType":"bytes32"},{"name":"voteCount","type":"uint256","internalType":"uint256"}],"stateMutability":"view"},{"type":"function","name":"vote","inputs":[{"name":"proposal","type":"uint256","internalType":"uint256"}],"outputs":[],"stateMutability":"nonpayable"},{"type":"function","name":"voters","inputs":[{"name":"","type":"address","internalType":"address"}],"outputs":[{"name":"weight","type":"uint256","internalType":"uint256"},{"name":"voted","type":"bool","internalType":"bool"},{"name":"delegate","type":"address","internalType":"address"},{"name":"vote","type":"uint256","internalType":"uint256"}],"stateMutability":"view"},{"type":"function","name":"winningNames","inputs":[],"outputs":[{"name":"winnerNames_","type":"bytes32[]","internalType":"bytes32[]"}],"stateMutability":"view"},{"type":"function","name":"winningProposals","inputs":[],"outputs":[{"name":"","type":"uint256[]","internalType":"uint256[]"}],"stateMutability":"view"}],"bytecode":{"object":"0x608060405234801561000f575f5ffd5b5060405161197f38038061197f833981810160405281019061003191906102f5565b335f5f6101000a81548173ffffffffffffffffffffffffffffffffffffffff021916908373ffffffffffffffffffffffffffffffffffffffff1602179055506001805f5f5f9054906101000a900473ffffffffffffffffffffffffffffffffffffffff1673ffffffffffffffffffffffffffffffffffffffff1673ffffffffffffffffffffffffffffffffffffffff1681526020019081526020015f205f01819055505f5f90505b815181101561015a57600260405180604001604052808484815181106101025761010161033c565b5b602002602001015181526020015f815250908060018154018082558091505060019003905f5260205f2090600202015f909190919091505f820151815f015560208201518160010155505080806001019150506100d9565b5050610369565b5f604051905090565b5f5ffd5b5f5ffd5b5f5ffd5b5f601f19601f8301169050919050565b7f4e487b71000000000000000000000000000000000000000000000000000000005f52604160045260245ffd5b6101bc82610176565b810181811067ffffffffffffffff821117156101db576101da610186565b5b80604052505050565b5f6101ed610161565b90506101f982826101b3565b919050565b5f67ffffffffffffffff82111561021857610217610186565b5b602082029050602081019050919050565b5f5ffd5b5f819050919050565b61023f8161022d565b8114610249575f5ffd5b50565b5f8151905061025a81610236565b92915050565b5f61027261026d846101fe565b6101e4565b9050808382526020820190506020840283018581111561029557610294610229565b5b835b818110156102be57806102aa888261024c565b845260208401935050602081019050610297565b5050509392505050565b5f82601f8301126102dc576102db610172565b5b81516102ec848260208601610260565b91505092915050565b5f6020828403121561030a5761030961016a565b5b5f82015167ffffffffffffffff8111156103275761032661016e565b5b610333848285016102c8565b91505092915050565b7f4e487b71000000000000000000000000000000000000000000000000000000005f52603260045260245ffd5b611609806103765f395ff3fe608060405234801561000f575f5ffd5b5060043610610086575f3560e01c806385816829116100595780638581682914610111578063a3ec138d1461012d578063c9e8a28714610160578063dfe53b081461017e57610086565b80630121b93f1461008a578063013cf08b146100a65780632e4176cf146100d75780635c19a95c146100f5575b5f5ffd5b6100a4600480360381019061009f9190610c59565b61019c565b005b6100c060048036038101906100bb9190610c59565b6102d7565b6040516100ce929190610cab565b60405180910390f35b6100df610306565b6040516100ec9190610d11565b60405180910390f35b61010f600480360381019061010a9190610d54565b61032a565b005b61012b60048036038101906101269190610ecf565b610704565b005b61014760048036038101906101429190610d54565b610959565b6040516101579493929190610f30565b60405180910390f35b6101686109b1565b604051610175919061102a565b60405180910390f35b610186610a86565b6040516101939190611101565b60405180910390f35b5f60015f3373ffffffffffffffffffffffffffffffffffffffff1673ffffffffffffffffffffffffffffffffffffffff1681526020019081526020015f2090505f815f015403610221576040517f08c379a00000000000000000000000000000000000000000000000000000000081526004016102189061117b565b60405180910390fd5b806001015f9054906101000a900460ff1615610272576040517f08c379a0000000000000000000000000000000000000000000000000000000008152600401610269906111e3565b60405180910390fd5b6001816001015f6101000a81548160ff021916908315150217905550818160020181905550805f0154600283815481106102af576102ae611201565b5b905f5260205f2090600202016001015f8282546102cc919061125b565b925050819055505050565b600281815481106102e6575f80fd5b905f5260205f2090600202015f91509050805f0154908060010154905082565b5f5f9054906101000a900473ffffffffffffffffffffffffffffffffffffffff1681565b5f60015f3373ffffffffffffffffffffffffffffffffffffffff1673ffffffffffffffffffffffffffffffffffffffff1681526020019081526020015f2090505f815f0154036103af576040517f08c379a00000000000000000000000000000000000000000000000000000000081526004016103a6906112d8565b60405180910390fd5b806001015f9054906101000a900460ff1615610400576040517f08c379a00000000000000000000000000000000000000000000000000000000081526004016103f790611340565b60405180910390fd5b3373ffffffffffffffffffffffffffffffffffffffff168273ffffffffffffffffffffffffffffffffffffffff160361046e576040517f08c379a0000000000000000000000000000000000000000000000000000000008152600401610465906113a8565b60405180910390fd5b5b5f73ffffffffffffffffffffffffffffffffffffffff1660015f8473ffffffffffffffffffffffffffffffffffffffff1673ffffffffffffffffffffffffffffffffffffffff1681526020019081526020015f2060010160019054906101000a900473ffffffffffffffffffffffffffffffffffffffff1673ffffffffffffffffffffffffffffffffffffffff16146105d85760015f8373ffffffffffffffffffffffffffffffffffffffff1673ffffffffffffffffffffffffffffffffffffffff1681526020019081526020015f2060010160019054906101000a900473ffffffffffffffffffffffffffffffffffffffff1691503373ffffffffffffffffffffffffffffffffffffffff168273ffffffffffffffffffffffffffffffffffffffff16036105d3576040517f08c379a00000000000000000000000000000000000000000000000000000000081526004016105ca90611410565b60405180910390fd5b61046f565b5f60015f8473ffffffffffffffffffffffffffffffffffffffff1673ffffffffffffffffffffffffffffffffffffffff1681526020019081526020015f2090506001815f01541015610628575f5ffd5b6001826001015f6101000a81548160ff021916908315150217905550828260010160016101000a81548173ffffffffffffffffffffffffffffffffffffffff021916908373ffffffffffffffffffffffffffffffffffffffff160217905550806001015f9054906101000a900460ff16156106e257815f015460028260020154815481106106b9576106b8611201565b5b905f5260205f2090600202016001015f8282546106d6919061125b565b925050819055506106ff565b815f0154815f015f8282546106f7919061125b565b925050819055505b505050565b5f5f9054906101000a900473ffffffffffffffffffffffffffffffffffffffff1673ffffffffffffffffffffffffffffffffffffffff163373ffffffffffffffffffffffffffffffffffffffff1614610792576040517f08c379a00000000000000000000000000000000000000000000000000000000081526004016107899061149e565b60405180910390fd5b5f5f90505b8151811015610955575f8282815181106107b4576107b3611201565b5b602002602001015190505f73ffffffffffffffffffffffffffffffffffffffff168173ffffffffffffffffffffffffffffffffffffffff160361082c576040517f08c379a000000000000000000000000000000000000000000000000000000000815260040161082390611506565b60405180910390fd5b60015f8273ffffffffffffffffffffffffffffffffffffffff1673ffffffffffffffffffffffffffffffffffffffff1681526020019081526020015f206001015f9054906101000a900460ff16156108b9576040517f08c379a00000000000000000000000000000000000000000000000000000000081526004016108b09061156e565b60405180910390fd5b5f60015f8373ffffffffffffffffffffffffffffffffffffffff1673ffffffffffffffffffffffffffffffffffffffff1681526020019081526020015f205f015414610903575f5ffd5b6001805f8373ffffffffffffffffffffffffffffffffffffffff1673ffffffffffffffffffffffffffffffffffffffff1681526020019081526020015f205f0181905550508080600101915050610797565b5050565b6001602052805f5260405f205f91509050805f015490806001015f9054906101000a900460ff16908060010160019054906101000a900473ffffffffffffffffffffffffffffffffffffffff16908060020154905084565b60605f6109bc610a86565b9050805167ffffffffffffffff8111156109d9576109d8610d93565b5b604051908082528060200260200182016040528015610a075781602001602082028036833780820191505090505b5091505f5f90505b8151811015610a81576002828281518110610a2d57610a2c611201565b5b602002602001015181548110610a4657610a45611201565b5b905f5260205f2090600202015f0154838281518110610a6857610a67611201565b5b6020026020010181815250508080600101915050610a0f565b505090565b60605f5f90505f5f90505f5f90505b600280549050811015610b43578260028281548110610ab757610ab6611201565b5b905f5260205f209060020201600101541115610afc5760028181548110610ae157610ae0611201565b5b905f5260205f20906002020160010154925060019150610b36565b8260028281548110610b1157610b10611201565b5b905f5260205f2090600202016001015403610b35578180610b319061158c565b9250505b5b8080600101915050610a95565b505f8167ffffffffffffffff811115610b5f57610b5e610d93565b5b604051908082528060200260200182016040528015610b8d5781602001602082028036833780820191505090505b5090505f5f90505f5f90505b600280549050811015610c0a578460028281548110610bbb57610bba611201565b5b905f5260205f2090600202016001015403610bfd5780838380610bdd9061158c565b945081518110610bf057610bef611201565b5b6020026020010181815250505b8080600101915050610b99565b508194505050505090565b5f604051905090565b5f5ffd5b5f5ffd5b5f819050919050565b610c3881610c26565b8114610c42575f5ffd5b50565b5f81359050610c5381610c2f565b92915050565b5f60208284031215610c6e57610c6d610c1e565b5b5f610c7b84828501610c45565b91505092915050565b5f819050919050565b610c9681610c84565b82525050565b610ca581610c26565b82525050565b5f604082019050610cbe5f830185610c8d565b610ccb6020830184610c9c565b9392505050565b5f73ffffffffffffffffffffffffffffffffffffffff82169050919050565b5f610cfb82610cd2565b9050919050565b610d0b81610cf1565b82525050565b5f602082019050610d245f830184610d02565b92915050565b610d3381610cf1565b8114610d3d575f5ffd5b50565b5f81359050610d4e81610d2a565b92915050565b5f60208284031215610d6957610d68610c1e565b5b5f610d7684828501610d40565b91505092915050565b5f5ffd5b5f601f19601f8301169050919050565b7f4e487b71000000000000000000000000000000000000000000000000000000005f52604160045260245ffd5b610dc982610d83565b810181811067ffffffffffffffff82111715610de857610de7610d93565b5b80604052505050565b5f610dfa610c15565b9050610e068282610dc0565b919050565b5f67ffffffffffffffff821115610e2557610e24610d93565b5b602082029050602081019050919050565b5f5ffd5b5f610e4c610e4784610e0b565b610df1565b90508083825260208201905060208402830185811115610e6f57610e6e610e36565b5b835b81811015610e985780610e848882610d40565b845260208401935050602081019050610e71565b5050509392505050565b5f82601f830112610eb657610eb5610d7f565b5b8135610ec6848260208601610e3a565b91505092915050565b5f60208284031215610ee457610ee3610c1e565b5b5f82013567ffffffffffffffff811115610f0157610f00610c22565b5b610f0d84828501610ea2565b91505092915050565b5f8115159050919050565b610f2a81610f16565b82525050565b5f608082019050610f435f830187610c9c565b610f506020830186610f21565b610f5d6040830185610d02565b610f6a6060830184610c9c565b95945050505050565b5f81519050919050565b5f82825260208201905092915050565b5f819050602082019050919050565b610fa581610c84565b82525050565b5f610fb68383610f9c565b60208301905092915050565b5f602082019050919050565b5f610fd882610f73565b610fe28185610f7d565b9350610fed83610f8d565b805f5b8381101561101d5781516110048882610fab565b975061100f83610fc2565b925050600181019050610ff0565b5085935050505092915050565b5f6020820190508181035f8301526110428184610fce565b905092915050565b5f81519050919050565b5f82825260208201905092915050565b5f819050602082019050919050565b61107c81610c26565b82525050565b5f61108d8383611073565b60208301905092915050565b5f602082019050919050565b5f6110af8261104a565b6110b98185611054565b93506110c483611064565b805f5b838110156110f45781516110db8882611082565b97506110e683611099565b9250506001810190506110c7565b5085935050505092915050565b5f6020820190508181035f83015261111981846110a5565b905092915050565b5f82825260208201905092915050565b7f486173206e6f20726967687420746f20766f74650000000000000000000000005f82015250565b5f611165601483611121565b915061117082611131565b602082019050919050565b5f6020820190508181035f83015261119281611159565b9050919050565b7f416c726561647920766f7465642e0000000000000000000000000000000000005f82015250565b5f6111cd600e83611121565b91506111d882611199565b602082019050919050565b5f6020820190508181035f8301526111fa816111c1565b9050919050565b7f4e487b71000000000000000000000000000000000000000000000000000000005f52603260045260245ffd5b7f4e487b71000000000000000000000000000000000000000000000000000000005f52601160045260245ffd5b5f61126582610c26565b915061127083610c26565b92508282019050808211156112885761128761122e565b5b92915050565b7f596f752068617665206e6f20726967687420746f20766f7465000000000000005f82015250565b5f6112c2601983611121565b91506112cd8261128e565b602082019050919050565b5f6020820190508181035f8301526112ef816112b6565b9050919050565b7f596f7520616c726561647920766f7465642e00000000000000000000000000005f82015250565b5f61132a601283611121565b9150611335826112f6565b602082019050919050565b5f6020820190508181035f8301526113578161131e565b9050919050565b7f53656c662d64656c65676174696f6e20697320646973616c6c6f7765642e00005f82015250565b5f611392601e83611121565b915061139d8261135e565b602082019050919050565b5f6020820190508181035f8301526113bf81611386565b9050919050565b7f466f756e64206c6f6f7020696e2064656c65676174696f6e2e000000000000005f82015250565b5f6113fa601983611121565b9150611405826113c6565b602082019050919050565b5f6020820190508181035f830152611427816113ee565b9050919050565b7f4f6e6c79206368616972706572736f6e2063616e2067697665207269676874735f8201527f2e00000000000000000000000000000000000000000000000000000000000000602082015250565b5f611488602183611121565b91506114938261142e565b604082019050919050565b5f6020820190508181035f8301526114b58161147c565b9050919050565b7f496e76616c696420766f746572206164647265737300000000000000000000005f82015250565b5f6114f0601583611121565b91506114fb826114bc565b602082019050919050565b5f6020820190508181035f83015261151d816114e4565b9050919050565b7f54686520766f74657220616c726561647920766f7465642e00000000000000005f82015250565b5f611558601883611121565b915061156382611524565b602082019050919050565b5f6020820190508181035f8301526115858161154c565b9050919050565b5f61159682610c26565b91507fffffffffffffffffffffffffffffffffffffffffffffffffffffffffffffffff82036115c8576115c761122e565b5b60018201905091905056fea2646970667358221220a8d6d4acebf1117d6a2d9566f5d87ef19d67a89d0a290cc3809e78a89a9d077764736f6c634300081e0033","linkReferences":{}},"methodIdentifiers":{"chairperson()":"2e4176cf","delegate(address)":"5c19a95c","giveRightToVote(address[])":"85816829","proposals(uint256)":"013cf08b","vote(uint256)":"0121b93f","voters(address)":"a3ec138d","winningNames()":"c9e8a287","winningProposals()":"dfe53b08"},"id":1}