{"abi":[{"type":"constructor","inputs":[{"name":"_coverCharge","type":"uint256","internalType":"uint256"},{"name":"_admin","type":"address","internalType":"address"}],"stateMutability":"nonpayable"},{"type":"function","name":"NewUser","inputs":[{"name":"addr","type":"address","internalType":"address"},{"name":"user","type":"tuple","internalType":"struct multi","components":[{"name":"verified","type":"bool","internalType":"bool"},{"name":"protocol","type":"bytes1","internalType":"bytes1"},{"name":"peerIdPrefix","type":"bytes2","internalType":"bytes2"},{"name":"username","type":"bytes8","internalType":"bytes8"},{"name":"proxy","type":"address","internalType":"address"},{"name":"ip","type":"bytes16","internalType":"bytes16"},{"name":"rating","type":"uint8","internalType":"uint8"},{"name":"rateCount","type":"uint32","internalType":"uint32"},{"name":"peerId","type":"bytes32","internalType":"bytes32"}]}],"outputs":[],"stateMutability":"payable"},{"type":"function","name":"RemoveUser","inputs":[{"name":"addr","type":"address","internalType":"address"}],"outputs":[],"stateMutability":"nonpayable"},{"type":"function","name":"admin","inputs":[],"outputs":[{"name":"","type":"address","internalType":"address"}],"stateMutability":"view"},{"type":"function","name":"burn","inputs":[{"name":"addr","type":"address","internalType":"address"},{"name":"amount","type":"uint256","internalType":"uint256"}],"outputs":[],"stateMutability":"nonpayable"},{"type":"function","name":"changeAdmin","inputs":[{"name":"newAdmin","type":"address","internalType":"address"}],"outputs":[],"stateMutability":"nonpayable"},{"type":"function","name":"changeCoverCharge","inputs":[{"name":"newCharge","type":"uint256","internalType":"uint256"}],"outputs":[],"stateMutability":"nonpayable"},{"type":"function","name":"coverCharge","inputs":[],"outputs":[{"name":"","type":"uint256","internalType":"uint256"}],"stateMutability":"view"},{"type":"function","name":"getBalance","inputs":[{"name":"addr","type":"address","internalType":"address"}],"outputs":[{"name":"","type":"uint256","internalType":"uint256"}],"stateMutability":"view"},{"type":"function","name":"getMulti","inputs":[{"name":"addr","type":"address","internalType":"address"}],"outputs":[{"name":"","type":"tuple","internalType":"struct multi","components":[{"name":"verified","type":"bool","internalType":"bool"},{"name":"protocol","type":"bytes1","internalType":"bytes1"},{"name":"peerIdPrefix","type":"bytes2","internalType":"bytes2"},{"name":"username","type":"bytes8","internalType":"bytes8"},{"name":"proxy","type":"address","internalType":"address"},{"name":"ip","type":"bytes16","internalType":"bytes16"},{"name":"rating","type":"uint8","internalType":"uint8"},{"name":"rateCount","type":"uint32","internalType":"uint32"},{"name":"peerId","type":"bytes32","internalType":"bytes32"}]}],"stateMutability":"view"},{"type":"function","name":"initUserBalance","inputs":[{"name":"addr","type":"address","internalType":"address"}],"outputs":[],"stateMutability":"nonpayable"},{"type":"function","name":"isEmpty","inputs":[{"name":"m","type":"tuple","internalType":"struct multi","components":[{"name":"verified","type":"bool","internalType":"bool"},{"name":"protocol","type":"bytes1","internalType":"bytes1"},{"name":"peerIdPrefix","type":"bytes2","internalType":"bytes2"},{"name":"username","type":"bytes8","internalType":"bytes8"},{"name":"proxy","type":"address","internalType":"address"},{"name":"ip","type":"bytes16","internalType":"bytes16"},{"name":"rating","type":"uint8","internalType":"uint8"},{"name":"rateCount","type":"uint32","internalType":"uint32"},{"name":"peerId","type":"bytes32","internalType":"bytes32"}]}],"outputs":[{"name":"","type":"bool","internalType":"bool"}],"stateMutability":"pure"},{"type":"function","name":"isFull","inputs":[{"name":"m","type":"tuple","internalType":"struct multi","components":[{"name":"verified","type":"bool","internalType":"bool"},{"name":"protocol","type":"bytes1","internalType":"bytes1"},{"name":"peerIdPrefix","type":"bytes2","internalType":"bytes2"},{"name":"username","type":"bytes8","internalType":"bytes8"},{"name":"proxy","type":"address","internalType":"address"},{"name":"ip","type":"bytes16","internalType":"bytes16"},{"name":"rating","type":"uint8","internalType":"uint8"},{"name":"rateCount","type":"uint32","internalType":"uint32"},{"name":"peerId","type":"bytes32","internalType":"bytes32"}]}],"outputs":[{"name":"","type":"bool","internalType":"bool"}],"stateMutability":"pure"},{"type":"function","name":"mint","inputs":[{"name":"reciever","type":"address","internalType":"address"},{"name":"amount","type":"uint256","internalType":"uint256"}],"outputs":[],"stateMutability":"nonpayable"},{"type":"function","name":"rate","inputs":[{"name":"addr","type":"address","internalType":"address"},{"name":"rating","type":"uint8","internalType":"uint8"}],"outputs":[],"stateMutability":"nonpayable"},{"type":"function","name":"removeMulti","inputs":[{"name":"addr","type":"address","internalType":"address"}],"outputs":[],"stateMutability":"nonpayable"},{"type":"function","name":"send","inputs":[{"name":"receiver","type":"address","internalType":"address"},{"name":"amount","type":"uint256","internalType":"uint256"}],"outputs":[],"stateMutability":"nonpayable"},{"type":"function","name":"setIP","inputs":[{"name":"addr","type":"address","internalType":"address"},{"name":"ip","type":"bytes16","internalType":"bytes16"}],"outputs":[],"stateMutability":"nonpayable"},{"type":"function","name":"setMulti","inputs":[{"name":"addr","type":"address","internalType":"address"},{"name":"m","type":"tuple","internalType":"struct multi","components":[{"name":"verified","type":"bool","internalType":"bool"},{"name":"protocol","type":"bytes1","internalType":"bytes1"},{"name":"peerIdPrefix","type":"bytes2","internalType":"bytes2"},{"name":"username","type":"bytes8","internalType":"bytes8"},{"name":"proxy","type":"address","internalType":"address"},{"name":"ip","type":"bytes16","internalType":"bytes16"},{"name":"rating","type":"uint8","internalType":"uint8"},{"name":"rateCount","type":"uint32","internalType":"uint32"},{"name":"peerId","type":"bytes32","internalType":"bytes32"}]}],"outputs":[],"stateMutability":"nonpayable"},{"type":"function","name":"setProxy","inputs":[{"name":"addr","type":"address","internalType":"address"},{"name":"proxy","type":"address","internalType":"address"}],"outputs":[],"stateMutability":"nonpayable"},{"type":"function","name":"setVerified","inputs":[{"name":"addr","type":"address","internalType":"address"},{"name":"verified","type":"bool","internalType":"bool"}],"outputs":[],"stateMutability":"nonpayable"},{"type":"event","name":"NewMulti","inputs":[{"name":"addr","type":"address","indexed":true,"internalType":"address"},{"name":"m","type":"tuple","indexed":false,"internalType":"struct multi","components":[{"name":"verified","type":"bool","internalType":"bool"},{"name":"protocol","type":"bytes1","internalType":"bytes1"},{"name":"peerIdPrefix","type":"bytes2","internalType":"bytes2"},{"name":"username","type":"bytes8","internalType":"bytes8"},{"name":"proxy","type":"address","internalType":"address"},{"name":"ip","type":"bytes16","internalType":"bytes16"},{"name":"rating","type":"uint8","internalType":"uint8"},{"name":"rateCount","type":"uint32","internalType":"uint32"},{"name":"peerId","type":"bytes32","internalType":"bytes32"}]}],"anonymous":false},{"type":"event","name":"RemovedMulti","inputs":[{"name":"addr","type":"address","indexed":true,"internalType":"address"}],"anonymous":false},{"type":"event","name":"Sent","inputs":[{"name":"from","type":"address","indexed":false,"internalType":"address"},{"name":"to","type":"address","indexed":false,"internalType":"address"},{"name":"amount","type":"uint256","indexed":false,"internalType":"uint256"}],"anonymous":false},{"type":"error","name":"BadRating","inputs":[]},{"type":"error","name":"InsufficientBalance","inputs":[{"name":"requested","type":"uint256","internalType":"uint256"},{"name":"available","type":"uint256","internalType":"uint256"}]},{"type":"error","name":"InvalidAddress","inputs":[]},{"type":"error","name":"MustBeEmpty","inputs":[]},{"type":"error","name":"MustBeFull","inputs":[]},{"type":"error","name":"NotCovered","inputs":[]},{"type":"error","name":"NotVerified","inputs":[]},{"type":"error","name":"Unauthorized","inputs":[]}],"bytecode":{"object":"0x608060405234801561000f575f5ffd5b506040516129e63803806129e68339818101604052810190610031919061010f565b805f5f6101000a81548173ffffffffffffffffffffffffffffffffffffffff021916908373ffffffffffffffffffffffffffffffffffffffff16021790555081600281905550505061014d565b5f5ffd5b5f819050919050565b61009481610082565b811461009e575f5ffd5b50565b5f815190506100af8161008b565b92915050565b5f73ffffffffffffffffffffffffffffffffffffffff82169050919050565b5f6100de826100b5565b9050919050565b6100ee816100d4565b81146100f8575f5ffd5b50565b5f81519050610109816100e5565b92915050565b5f5f604083850312156101255761012461007e565b5b5f610132858286016100a1565b9250506020610143858286016100fb565b9150509250929050565b61288c8061015a5f395ff3fe60806040526004361061011e575f3560e01c806397ee13641161009f578063d0679d3411610063578063d0679d34146103b8578063f81cd4b0146103e0578063f851a44014610408578063f8b2cb4f14610432578063f9581b0f1461046e5761011e565b806397ee1364146102f05780639cf5c613146103185780639dc29fac14610340578063a9d4630c14610368578063b01c4ef4146103905761011e565b8063626de1ed116100e6578063626de1ed146101fe5780636bdacab71461023a57806374d3945e146102765780638f2839701461029e57806396c5f673146102c65761011e565b80630905e0ad146101225780630ad8e54a1461014a5780633507a4c51461017257806340c10f191461019a5780634e173573146101c2575b5f5ffd5b34801561012d575f5ffd5b506101486004803603810190610143919061229f565b61048a565b005b348015610155575f5ffd5b50610170600480360381019061016b91906122de565b610764565b005b34801561017d575f5ffd5b50610198600480360381019061019391906122de565b6108e4565b005b3480156101a5575f5ffd5b506101c060048036038101906101bb919061233c565b610ab5565b005b3480156101cd575f5ffd5b506101e860048036038101906101e3919061237a565b610b91565b6040516101f591906123b5565b60405180910390f35b348015610209575f5ffd5b50610224600480360381019061021f91906122de565b610c3b565b604051610231919061250a565b60405180910390f35b348015610245575f5ffd5b50610260600480360381019061025b919061237a565b610eef565b60405161026d91906123b5565b60405180910390f35b348015610281575f5ffd5b5061029c60048036038101906102979190612524565b610f8b565b005b3480156102a9575f5ffd5b506102c460048036038101906102bf91906122de565b6110b7565b005b3480156102d1575f5ffd5b506102da6111e5565b6040516102e79190612571565b60405180910390f35b3480156102fb575f5ffd5b506103166004803603810190610311919061258a565b6111eb565b005b348015610323575f5ffd5b5061033e600480360381019061033991906125b5565b61127a565b005b34801561034b575f5ffd5b506103666004803603810190610361919061233c565b611359565b005b348015610373575f5ffd5b5061038e600480360381019061038991906125f3565b61152e565b005b34801561039b575f5ffd5b506103b660048036038101906103b191906122de565b611671565b005b3480156103c3575f5ffd5b506103de60048036038101906103d9919061233c565b6116b6565b005b3480156103eb575f5ffd5b5061040660048036038101906104019190612631565b611860565b005b348015610413575f5ffd5b5061041c611b59565b604051610429919061267e565b60405180910390f35b34801561043d575f5ffd5b50610458600480360381019061045391906122de565b611b7d565b6040516104659190612571565b60405180910390f35b6104886004803603810190610483919061229f565b611bc3565b005b815f5f9054906101000a900473ffffffffffffffffffffffffffffffffffffffff1673ffffffffffffffffffffffffffffffffffffffff163373ffffffffffffffffffffffffffffffffffffffff161415801561051357508073ffffffffffffffffffffffffffffffffffffffff163373ffffffffffffffffffffffffffffffffffffffff1614155b1561054a576040517f82b4290000000000000000000000000000000000000000000000000000000000815260040160405180910390fd5b8160015f8573ffffffffffffffffffffffffffffffffffffffff1673ffffffffffffffffffffffffffffffffffffffff1681526020019081526020015f205f820151815f015f6101000a81548160ff0219169083151502179055506020820151815f0160016101000a81548160ff021916908360f81c02179055506040820151815f0160026101000a81548161ffff021916908360f01c02179055506060820151815f0160046101000a81548167ffffffffffffffff021916908360c01c02179055506080820151815f01600c6101000a81548173ffffffffffffffffffffffffffffffffffffffff021916908373ffffffffffffffffffffffffffffffffffffffff16021790555060a0820151816001015f6101000a8154816fffffffffffffffffffffffffffffffff021916908360801c021790555060c08201518160010160106101000a81548160ff021916908360ff16021790555060e08201518160010160116101000a81548163ffffffff021916908363ffffffff16021790555061010082015181600201559050505f5f9054906101000a900473ffffffffffffffffffffffffffffffffffffffff1673ffffffffffffffffffffffffffffffffffffffff163373ffffffffffffffffffffffffffffffffffffffff1614825f0190151590811515815250505f8260c0019060ff16908160ff16815250505f8260e0019063ffffffff16908163ffffffff1681525050505050565b805f73ffffffffffffffffffffffffffffffffffffffff168173ffffffffffffffffffffffffffffffffffffffff16036107ca576040517fe6c4247b00000000000000000000000000000000000000000000000000000000815260040160405180910390fd5b815f5f9054906101000a900473ffffffffffffffffffffffffffffffffffffffff1673ffffffffffffffffffffffffffffffffffffffff163373ffffffffffffffffffffffffffffffffffffffff161415801561085357508073ffffffffffffffffffffffffffffffffffffffff163373ffffffffffffffffffffffffffffffffffffffff1614155b1561088a576040517f82b4290000000000000000000000000000000000000000000000000000000000815260040160405180910390fd5b610893836108e4565b61089c83611d8c565b8273ffffffffffffffffffffffffffffffffffffffff167f4c231f59ec34c36c7032ee08df08d17d7c2574b5df0340fa62a1d910c41290b560405160405180910390a2505050565b805f5f9054906101000a900473ffffffffffffffffffffffffffffffffffffffff1673ffffffffffffffffffffffffffffffffffffffff163373ffffffffffffffffffffffffffffffffffffffff161415801561096d57508073ffffffffffffffffffffffffffffffffffffffff163373ffffffffffffffffffffffffffffffffffffffff1614155b156109a4576040517f82b4290000000000000000000000000000000000000000000000000000000000815260040160405180910390fd5b60015f8373ffffffffffffffffffffffffffffffffffffffff1673ffffffffffffffffffffffffffffffffffffffff1681526020019081526020015f205f5f82015f6101000a81549060ff02191690555f820160016101000a81549060ff02191690555f820160026101000a81549061ffff02191690555f820160046101000a81549067ffffffffffffffff02191690555f8201600c6101000a81549073ffffffffffffffffffffffffffffffffffffffff0219169055600182015f6101000a8154906fffffffffffffffffffffffffffffffff02191690556001820160106101000a81549060ff02191690556001820160116101000a81549063ffffffff0219169055600282015f905550505050565b5f5f9054906101000a900473ffffffffffffffffffffffffffffffffffffffff1673ffffffffffffffffffffffffffffffffffffffff163373ffffffffffffffffffffffffffffffffffffffff1614610b3a576040517f82b4290000000000000000000000000000000000000000000000000000000000815260040160405180910390fd5b8060035f8473ffffffffffffffffffffffffffffffffffffffff1673ffffffffffffffffffffffffffffffffffffffff1681526020019081526020015f205f828254610b8691906126c4565b925050819055505050565b5f5f1515825f01511515148015610bd057505f60f81b82602001517effffffffffffffffffffffffffffffffffffffffffffffffffffffffffffff1916145b8015610bfd57505f60c01b826060015177ffffffffffffffffffffffffffffffffffffffffffffffff1916145b8015610c2257505f60801b8260a001516fffffffffffffffffffffffffffffffff1916145b8015610c3457505f5f1b826101000151145b9050919050565b610c43611dcf565b815f73ffffffffffffffffffffffffffffffffffffffff168173ffffffffffffffffffffffffffffffffffffffff1603610ca9576040517fe6c4247b00000000000000000000000000000000000000000000000000000000815260040160405180910390fd5b60015f8473ffffffffffffffffffffffffffffffffffffffff1673ffffffffffffffffffffffffffffffffffffffff1681526020019081526020015f20604051806101200160405290815f82015f9054906101000a900460ff161515151581526020015f820160019054906101000a900460f81b7effffffffffffffffffffffffffffffffffffffffffffffffffffffffffffff19167effffffffffffffffffffffffffffffffffffffffffffffffffffffffffffff191681526020015f820160029054906101000a900460f01b7dffffffffffffffffffffffffffffffffffffffffffffffffffffffffffff19167dffffffffffffffffffffffffffffffffffffffffffffffffffffffffffff191681526020015f820160049054906101000a900460c01b77ffffffffffffffffffffffffffffffffffffffffffffffff191677ffffffffffffffffffffffffffffffffffffffffffffffff191681526020015f8201600c9054906101000a900473ffffffffffffffffffffffffffffffffffffffff1673ffffffffffffffffffffffffffffffffffffffff1673ffffffffffffffffffffffffffffffffffffffff168152602001600182015f9054906101000a900460801b6fffffffffffffffffffffffffffffffff19166fffffffffffffffffffffffffffffffff191681526020016001820160109054906101000a900460ff1660ff1660ff1681526020016001820160119054906101000a900463ffffffff1663ffffffff1663ffffffff168152602001600282015481525050915050919050565b5f5f60f81b82602001517effffffffffffffffffffffffffffffffffffffffffffffffffffffffffffff191614158015610f4357505f60801b8260a001516fffffffffffffffffffffffffffffffff191614155b8015610f7157505f60c01b826060015177ffffffffffffffffffffffffffffffffffffffffffffffff191614155b8015610f8457505f5f1b82610100015114155b9050919050565b815f5f9054906101000a900473ffffffffffffffffffffffffffffffffffffffff1673ffffffffffffffffffffffffffffffffffffffff163373ffffffffffffffffffffffffffffffffffffffff161415801561101457508073ffffffffffffffffffffffffffffffffffffffff163373ffffffffffffffffffffffffffffffffffffffff1614155b1561104b576040517f82b4290000000000000000000000000000000000000000000000000000000000815260040160405180910390fd5b8160015f8573ffffffffffffffffffffffffffffffffffffffff1673ffffffffffffffffffffffffffffffffffffffff1681526020019081526020015f206001015f6101000a8154816fffffffffffffffffffffffffffffffff021916908360801c0217905550505050565b5f5f9054906101000a900473ffffffffffffffffffffffffffffffffffffffff1673ffffffffffffffffffffffffffffffffffffffff163373ffffffffffffffffffffffffffffffffffffffff161461113c576040517f82b4290000000000000000000000000000000000000000000000000000000000815260040160405180910390fd5b805f73ffffffffffffffffffffffffffffffffffffffff168173ffffffffffffffffffffffffffffffffffffffff16036111a2576040517fe6c4247b00000000000000000000000000000000000000000000000000000000815260040160405180910390fd5b815f5f6101000a81548173ffffffffffffffffffffffffffffffffffffffff021916908373ffffffffffffffffffffffffffffffffffffffff1602179055505050565b60025481565b5f5f9054906101000a900473ffffffffffffffffffffffffffffffffffffffff1673ffffffffffffffffffffffffffffffffffffffff163373ffffffffffffffffffffffffffffffffffffffff1614611270576040517f82b4290000000000000000000000000000000000000000000000000000000000815260040160405180910390fd5b8060028190555050565b5f5f9054906101000a900473ffffffffffffffffffffffffffffffffffffffff1673ffffffffffffffffffffffffffffffffffffffff163373ffffffffffffffffffffffffffffffffffffffff16146112ff576040517f82b4290000000000000000000000000000000000000000000000000000000000815260040160405180910390fd5b8060015f8473ffffffffffffffffffffffffffffffffffffffff1673ffffffffffffffffffffffffffffffffffffffff1681526020019081526020015f205f015f6101000a81548160ff0219169083151502179055505050565b3373ffffffffffffffffffffffffffffffffffffffff168273ffffffffffffffffffffffffffffffffffffffff1614611412575f5f9054906101000a900473ffffffffffffffffffffffffffffffffffffffff1673ffffffffffffffffffffffffffffffffffffffff163373ffffffffffffffffffffffffffffffffffffffff1614611411576040517f82b4290000000000000000000000000000000000000000000000000000000000815260040160405180910390fd5b5b60035f8373ffffffffffffffffffffffffffffffffffffffff1673ffffffffffffffffffffffffffffffffffffffff1681526020019081526020015f20548111158160035f8573ffffffffffffffffffffffffffffffffffffffff1673ffffffffffffffffffffffffffffffffffffffff1681526020019081526020015f205490916114d5576040517fcf4791810000000000000000000000000000000000000000000000000000000081526004016114cc9291906126f7565b60405180910390fd5b50508060035f8473ffffffffffffffffffffffffffffffffffffffff1673ffffffffffffffffffffffffffffffffffffffff1681526020019081526020015f205f828254611523919061271e565b925050819055505050565b815f5f9054906101000a900473ffffffffffffffffffffffffffffffffffffffff1673ffffffffffffffffffffffffffffffffffffffff163373ffffffffffffffffffffffffffffffffffffffff16141580156115b757508073ffffffffffffffffffffffffffffffffffffffff163373ffffffffffffffffffffffffffffffffffffffff1614155b156115ee576040517f82b4290000000000000000000000000000000000000000000000000000000000815260040160405180910390fd5b8160015f8573ffffffffffffffffffffffffffffffffffffffff1673ffffffffffffffffffffffffffffffffffffffff1681526020019081526020015f205f01600c6101000a81548173ffffffffffffffffffffffffffffffffffffffff021916908373ffffffffffffffffffffffffffffffffffffffff160217905550505050565b5f60035f8373ffffffffffffffffffffffffffffffffffffffff1673ffffffffffffffffffffffffffffffffffffffff1681526020019081526020015f208190555050565b60035f3373ffffffffffffffffffffffffffffffffffffffff1673ffffffffffffffffffffffffffffffffffffffff1681526020019081526020015f20548111158160035f3373ffffffffffffffffffffffffffffffffffffffff1673ffffffffffffffffffffffffffffffffffffffff1681526020019081526020015f20549091611779576040517fcf4791810000000000000000000000000000000000000000000000000000000081526004016117709291906126f7565b60405180910390fd5b50508060035f3373ffffffffffffffffffffffffffffffffffffffff1673ffffffffffffffffffffffffffffffffffffffff1681526020019081526020015f205f8282546117c7919061271e565b925050819055508060035f8473ffffffffffffffffffffffffffffffffffffffff1673ffffffffffffffffffffffffffffffffffffffff1681526020019081526020015f205f82825461181a91906126c4565b925050819055507f3990db2d31862302a685e8086b5755072a6e2b5b780af1ee81ece35ee3cd334533838360405161185493929190612751565b60405180910390a15050565b60015f3373ffffffffffffffffffffffffffffffffffffffff1673ffffffffffffffffffffffffffffffffffffffff1681526020019081526020015f205f015f9054906101000a900460ff168061190257505f5f9054906101000a900473ffffffffffffffffffffffffffffffffffffffff1673ffffffffffffffffffffffffffffffffffffffff163373ffffffffffffffffffffffffffffffffffffffff16145b611938576040517fa95362b500000000000000000000000000000000000000000000000000000000815260040160405180910390fd5b818073ffffffffffffffffffffffffffffffffffffffff163373ffffffffffffffffffffffffffffffffffffffff160361199e576040517fe6c4247b00000000000000000000000000000000000000000000000000000000815260040160405180910390fd5b825f73ffffffffffffffffffffffffffffffffffffffff168173ffffffffffffffffffffffffffffffffffffffff1603611a04576040517fe6c4247b00000000000000000000000000000000000000000000000000000000815260040160405180910390fd5b8260ff165f108015611a1a575060fa8360ff1611155b611a50576040517f3479320800000000000000000000000000000000000000000000000000000000815260040160405180910390fd5b5f60015f8673ffffffffffffffffffffffffffffffffffffffff1673ffffffffffffffffffffffffffffffffffffffff1681526020019081526020015f2090505f8160010160119054906101000a900463ffffffff168260010160109054906101000a900460ff1660ff16611ac59190612786565b63ffffffff1690505f60018360010160119054906101000a900463ffffffff16611aef91906127c2565b63ffffffff16905080828760ff16611b0791906126c4565b611b119190612826565b8360010160106101000a81548160ff021916908360ff160217905550808360010160116101000a81548163ffffffff021916908363ffffffff16021790555050505050505050565b5f5f9054906101000a900473ffffffffffffffffffffffffffffffffffffffff1681565b5f60035f8373ffffffffffffffffffffffffffffffffffffffff1673ffffffffffffffffffffffffffffffffffffffff1681526020019081526020015f20549050919050565b815f73ffffffffffffffffffffffffffffffffffffffff168173ffffffffffffffffffffffffffffffffffffffff1603611c29576040517fe6c4247b00000000000000000000000000000000000000000000000000000000815260040160405180910390fd5b825f5f9054906101000a900473ffffffffffffffffffffffffffffffffffffffff1673ffffffffffffffffffffffffffffffffffffffff163373ffffffffffffffffffffffffffffffffffffffff1614158015611cb257508073ffffffffffffffffffffffffffffffffffffffff163373ffffffffffffffffffffffffffffffffffffffff1614155b15611ce9576040517f82b4290000000000000000000000000000000000000000000000000000000000815260040160405180910390fd5b600254341015611d25576040517fd85c1cd700000000000000000000000000000000000000000000000000000000815260040160405180910390fd5b611d2f848461048a565b611d3884611671565b8373ffffffffffffffffffffffffffffffffffffffff167f1bf927ddda534360cb1ed6347384fe03ea1ca3c2e0cd8b08e1d39287d4cd84a184604051611d7e919061250a565b60405180910390a250505050565b60035f8273ffffffffffffffffffffffffffffffffffffffff1673ffffffffffffffffffffffffffffffffffffffff1681526020019081526020015f205f905550565b6040518061012001604052805f151581526020015f7effffffffffffffffffffffffffffffffffffffffffffffffffffffffffffff191681526020015f7dffffffffffffffffffffffffffffffffffffffffffffffffffffffffffff191681526020015f77ffffffffffffffffffffffffffffffffffffffffffffffff191681526020015f73ffffffffffffffffffffffffffffffffffffffff1681526020015f6fffffffffffffffffffffffffffffffff191681526020015f60ff1681526020015f63ffffffff1681526020015f81525090565b5f604051905090565b5f5ffd5b5f73ffffffffffffffffffffffffffffffffffffffff82169050919050565b5f611eda82611eb1565b9050919050565b611eea81611ed0565b8114611ef4575f5ffd5b50565b5f81359050611f0581611ee1565b92915050565b5f5ffd5b5f601f19601f8301169050919050565b7f4e487b71000000000000000000000000000000000000000000000000000000005f52604160045260245ffd5b611f5582611f0f565b810181811067ffffffffffffffff82111715611f7457611f73611f1f565b5b80604052505050565b5f611f86611ea4565b9050611f928282611f4c565b919050565b5f8115159050919050565b611fab81611f97565b8114611fb5575f5ffd5b50565b5f81359050611fc681611fa2565b92915050565b5f7fff0000000000000000000000000000000000000000000000000000000000000082169050919050565b61200081611fcc565b811461200a575f5ffd5b50565b5f8135905061201b81611ff7565b92915050565b5f7fffff00000000000000000000000000000000000000000000000000000000000082169050919050565b61205581612021565b811461205f575f5ffd5b50565b5f813590506120708161204c565b92915050565b5f7fffffffffffffffff00000000000000000000000000000000000000000000000082169050919050565b6120aa81612076565b81146120b4575f5ffd5b50565b5f813590506120c5816120a1565b92915050565b5f7fffffffffffffffffffffffffffffffff0000000000000000000000000000000082169050919050565b6120ff816120cb565b8114612109575f5ffd5b50565b5f8135905061211a816120f6565b92915050565b5f60ff82169050919050565b61213581612120565b811461213f575f5ffd5b50565b5f813590506121508161212c565b92915050565b5f63ffffffff82169050919050565b61216e81612156565b8114612178575f5ffd5b50565b5f8135905061218981612165565b92915050565b5f819050919050565b6121a18161218f565b81146121ab575f5ffd5b50565b5f813590506121bc81612198565b92915050565b5f61012082840312156121d8576121d7611f0b565b5b6121e3610120611f7d565b90505f6121f284828501611fb8565b5f8301525060206122058482850161200d565b602083015250604061221984828501612062565b604083015250606061222d848285016120b7565b606083015250608061224184828501611ef7565b60808301525060a06122558482850161210c565b60a08301525060c061226984828501612142565b60c08301525060e061227d8482850161217b565b60e083015250610100612292848285016121ae565b6101008301525092915050565b5f5f61014083850312156122b6576122b5611ead565b5b5f6122c385828601611ef7565b92505060206122d4858286016121c2565b9150509250929050565b5f602082840312156122f3576122f2611ead565b5b5f61230084828501611ef7565b91505092915050565b5f819050919050565b61231b81612309565b8114612325575f5ffd5b50565b5f8135905061233681612312565b92915050565b5f5f6040838503121561235257612351611ead565b5b5f61235f85828601611ef7565b925050602061237085828601612328565b9150509250929050565b5f61012082840312156123905761238f611ead565b5b5f61239d848285016121c2565b91505092915050565b6123af81611f97565b82525050565b5f6020820190506123c85f8301846123a6565b92915050565b6123d781611f97565b82525050565b6123e681611fcc565b82525050565b6123f581612021565b82525050565b61240481612076565b82525050565b61241381611ed0565b82525050565b612422816120cb565b82525050565b61243181612120565b82525050565b61244081612156565b82525050565b61244f8161218f565b82525050565b61012082015f82015161246a5f8501826123ce565b50602082015161247d60208501826123dd565b50604082015161249060408501826123ec565b5060608201516124a360608501826123fb565b5060808201516124b6608085018261240a565b5060a08201516124c960a0850182612419565b5060c08201516124dc60c0850182612428565b5060e08201516124ef60e0850182612437565b50610100820151612504610100850182612446565b50505050565b5f6101208201905061251e5f830184612455565b92915050565b5f5f6040838503121561253a57612539611ead565b5b5f61254785828601611ef7565b92505060206125588582860161210c565b9150509250929050565b61256b81612309565b82525050565b5f6020820190506125845f830184612562565b92915050565b5f6020828403121561259f5761259e611ead565b5b5f6125ac84828501612328565b91505092915050565b5f5f604083850312156125cb576125ca611ead565b5b5f6125d885828601611ef7565b92505060206125e985828601611fb8565b9150509250929050565b5f5f6040838503121561260957612608611ead565b5b5f61261685828601611ef7565b925050602061262785828601611ef7565b9150509250929050565b5f5f6040838503121561264757612646611ead565b5b5f61265485828601611ef7565b925050602061266585828601612142565b9150509250929050565b61267881611ed0565b82525050565b5f6020820190506126915f83018461266f565b92915050565b7f4e487b71000000000000000000000000000000000000000000000000000000005f52601160045260245ffd5b5f6126ce82612309565b91506126d983612309565b92508282019050808211156126f1576126f0612697565b5b92915050565b5f60408201905061270a5f830185612562565b6127176020830184612562565b9392505050565b5f61272882612309565b915061273383612309565b925082820390508181111561274b5761274a612697565b5b92915050565b5f6060820190506127645f83018661266f565b612771602083018561266f565b61277e6040830184612562565b949350505050565b5f61279082612156565b915061279b83612156565b92508282026127a981612156565b91508082146127bb576127ba612697565b5b5092915050565b5f6127cc82612156565b91506127d783612156565b9250828201905063ffffffff8111156127f3576127f2612697565b5b92915050565b7f4e487b71000000000000000000000000000000000000000000000000000000005f52601260045260245ffd5b5f61283082612309565b915061283b83612309565b92508261284b5761284a6127f9565b5b82820490509291505056fea264697066735822122009c2b0c70ea66f90bdbe9bb8cfb702c78daef3cd516224ae05fa3e59a804d0d464736f6c634300081e0033","linkReferences":{}},"methodIdentifiers":{"NewUser(address,(bool,bytes1,bytes2,bytes8,address,bytes16,uint8,uint32,bytes32))":"f9581b0f","RemoveUser(address)":"0ad8e54a","admin()":"f851a440","burn(address,uint256)":"9dc29fac","changeAdmin(address)":"8f283970","changeCoverCharge(uint256)":"97ee1364","coverCharge()":"96c5f673","getBalance(address)":"f8b2cb4f","getMulti(address)":"626de1ed","initUserBalance(address)":"b01c4ef4","isEmpty((bool,bytes1,bytes2,bytes8,address,bytes16,uint8,uint32,bytes32))":"4e173573","isFull((bool,bytes1,bytes2,bytes8,address,bytes16,uint8,uint32,bytes32))":"6bdacab7","mint(address,uint256)":"40c10f19","rate(address,uint8)":"f81cd4b0","removeMulti(address)":"3507a4c5","send(address,uint256)":"d0679d34","setIP(address,bytes16)":"74d3945e","setMulti(address,(bool,bytes1,bytes2,bytes8,address,bytes16,uint8,uint32,bytes32))":"0905e0ad","setProxy(address,address)":"a9d4630c","setVerified(address,bool)":"9cf5c613"},"id":1}